:100000000C945C000C94AE010C9487010C94790064
:100010000C9479000C9479000C9479000C9479007C
:100020000C9479000C9479000C9479000C9479006C
:100030000C9479000C9479000C9479000C9479005C
:100040000C943D010C9479000C9479000C94790087
:100050000C9479000C9479000C9479000C9479003C
:100060000C9479000C947900000000002400270013
:100070002A0000000000250028002B0004040404CE
:100080000404040402020202020203030303030342
:10009000010204081020408001020408102001021F
:1000A00004081020000000080002010000030407FB
:1000B000000000000000000011241FBECFEFD8E0B8
:1000C000DEBFCDBF11E0A0E0B1E0E6E0F5E002C0A8
:1000D00005900D92A830B107D9F721E0A8E0B1E072
:1000E00001C01D92A231B207E1F70E94D5010C9424
:1000F00081020C940000EBEAF0E02491E7E9F0E0E3
:100100009491E3E8F0E0E491EE23C9F0222339F082
:10011000233001F1A8F4213019F1223029F1F0E067
:10012000EE0FFF1FEE58FF4FA591B4912FB7F89433
:10013000EC91811126C090959E239C932FBF08952A
:100140002730A9F02830C9F0243049F720918000E9
:100150002F7D03C0209180002F7720938000DFCF78
:1001600024B52F7724BDDBCF24B52F7DFBCF209185
:10017000B0002F772093B000D2CF2091B0002F7D18
:10018000F9CF9E2BDACF9091080181E0911180E0A8
:10019000809308018091080181110DC080ED97E0E6
:1001A000909307018093060188EE93E090930501F8
:1001B00080930401089588E893E190930701809368
:1001C000060188EA91E6F2CF3FB7F89480910E01DC
:1001D00090910F01A0911001B091110126B5A89B3B
:1001E00005C02F3F19F00196A11DB11D3FBFBA2FC9
:1001F000A92F982F8827BC01CD01620F711D811D89
:10020000911D42E0660F771F881F991F4A95D1F70D
:1002100008958F929F92AF92BF92CF92DF92EF920A
:10022000FF926B017C010E94E4004B015C01C11450
:10023000D104E104F104B9F00E94E40068197909DD
:100240008A099B09683E73408105910580F321E08E
:10025000C21AD108E108F10888EE880E83E0981EE2
:10026000A11CB11CE4CFFF90EF90DF90CF90BF9026
:10027000AF909F908F90089508951F920F920FB6A0
:100280000F9211242F933F938F939F93AF93BF931C
:1002900080910A0190910B01A0910C01B0910D0188
:1002A0003091090123E0230F2D3758F50196A11D48
:1002B000B11D2093090180930A0190930B01A09333
:1002C0000C01B0930D0180910E0190910F01A0914E
:1002D0001001B09111010196A11DB11D80930E0175
:1002E00090930F01A0931001B0931101BF91AF91B2
:1002F0009F918F913F912F910F900FBE0F901F9064
:10030000189526E8230F0296A11DB11DD2CF1F928A
:100310000F920FB60F9211242F933F934F935F9339
:100320006F937F938F939F93AF93BF93EF93FF93BD
:10033000E0910201F09103010995FF91EF91BF91C6
:10034000AF919F918F917F916F915F914F913F916D
:100350002F910F900FBE0F901F9018951F920F9224
:100360000FB60F9211242F933F934F935F936F9388
:100370007F938F939F93AF93BF93EF93FF93E091FE
:100380000001F09101010995FF91EF91BF91AF91AB
:100390009F918F917F916F915F914F913F912F919D
:1003A0000F900FBE0F901F901895789484B58260BF
:1003B00084BD84B5816084BD85B5826085BD85B509
:1003C000816085BD80916E00816080936E00109287
:1003D0008100809181008260809381008091810002
:1003E0008160809381008091800081608093800093
:1003F0008091B10084608093B1008091B0008160F1
:100400008093B00080917A00846080937A0080911C
:100410007A00826080937A0080917A008160809374
:100420007A0080917A00806880937A001092C100EF
:10043000E7E9F0E02491E3E8F0E08491882399F083
:1004400090E0880F991FFC01E859FF4FA591B491E6
:10045000FC01EE58FF4F859194918FB7F894EC9181
:10046000E22BEC938FBFE2E9F0E02491EEE7F0E0BD
:1004700084918823C1F090E0880F991FFC01E8590E
:10048000FF4FC591D491FC01EE58FF4FA591B49157
:100490009FB7F8943881822F809583238883EC91CD
:1004A000E22BEC939FBF83EC90E09093010180934B
:1004B0000001809169008C7F826080936900E89AD6
:1004C000C0E0D0E081E00E947B0060910601709165
:1004D0000701072E000C880B990B0E94090180E090
:1004E0000E947B006091040170910501072E000CB1
:1004F000880B990B0E940901209721F30E940000AC
:06050000E1CFF894FFCFEB
:080506003C013C01E803D007B1
:00000001FF
